S00F0000696D755F746573742E7333377B
S31508000000001000208D0A00084D5C00084D5C0008B1
S315080000104D5C00084D5C00084D5C00084D5C00080E
S315080000204D5C00084D5C00084D5C00084D5C0008FE
S315080000304D5C00084D5C00084D5C00084D5C0008EE
S315080000404D5C00084D5C00084D5C00084D5C0008DE
S315080000504D5C00084D5C00084D5C00084D5C0008CE
S315080000604D5C00084D5C00084D5C0008D10800088E
S315080000709F5B00084D5C00084D5C00084D5C00085D
S315080000804D5C00084D5C00084D5C00084D5C00089E
S315080000904D5C00088D1200084D5C00084D5C000898
S315080000A04D5C0008CD0E0008AD0E00084D5C00083A
S315080000B04D5C00084D5C00084D5C00084D5C00086E
S315080000C04D5C00084D5C00084D5C00084D5C00085E
S315080000D04D5C00084D5C00084D5C00084D5C00084E
S315080000E04D5C00084D5C00084D5C00084D5C00083E
S315080000F04D5C00084D5C00084D5C00084D5C00082E
S315080001004D5C00084D5C00084D5C00084D5C00081D
S315080001104D5C00084D5C00084D5C00084D5C00080D
S315080001204D5C00084D5C00084D5C00084D5C0008FD
S315080001304D5C00084D5C00084D5C00084D5C0008ED
S315080001404D5C00084D5C00084D5C0008DB6D00083E
S315080001504D5C00084D5C00084D5C00084D5C0008CD
S315080001604D5C00084D5C00084D5C00084D5C0008BD
S31508000170013800D0FCE770470348044B834202D09D
S31508000180034B03B11847704730160020301600207D
S3150800019000000000064B0749C91A891048BF0131FB
S315080001A0491003D0044B0BB101481847704700BFEC
S315080001B030160020301600200000000010B5064C4E
S315080001C0237843B9FFF7D8FF044B13B10448AFF3BC
S315080001D000800123237010BD581500200000000080
S315080001E07476000808B5054B1BB105490548AFF3F9
S315080001F00080BDE80840FFF7CDBF00BF0000000043
S315080002000010002074760008A3F5803A704700BFF6
S31508000210174B002B08BF134B9D46FFF7F5FF002130
S315080002208B460F461348144A121A05F038FF0E4B30
S31508000230002B00D098470D4B002B00D09847002084
S31508000240002104000D000D48002802D00C48AFF329
S31508000250008004F0BFFF2000290005F09BFB04F096
S31508000260ABFE00BF00000800000000000000000010
S315080002700010002000100020881500200000000053
S315080002800000000008B500F027FA20B10548BDE8CF
S31508000290084004F047BF9FED040A00F03BFA034804
S315080002A0F5E700BF386E000800007A44556E00086E
S315080002B0F0B585B000F07EFA002835D01B4D1C4CF1
S315080002C0284600F05BFA204600F066FA286804F033
S315080002D08BFC0646A8680F4604F086FCCDE90201A9
S315080002E0686804F081FC32463B46CDE900011148B6
S315080002F004F018FF206804F077FC0646A0680F464D
S3150800030004F072FCCDE90201606804F06DFC324627
S31508000310CDE900013B46084804F004FF642005B017
S31508000320BDE8F04004F07EBA05B0F0BD2410002008
S3150800033018100020776E0008956E000870B592B008
S31508000340294E05AC35460FCD06F114050FC40FCD61
S315080003500AAC0FC495E80F0084E80F00234B244825
S3150800036007930AAB09934FF48073ADF82C3006F067
S3150800037098FC204806F095FC0421B38E0DEB01008D
S315080003800022ADF8043000F0F3FCF38E00220121C0
S3150800039002A8ADF8083000F0EBFC338F00220421E8
S315080003A003A8ADF80C3000F0E3FC4FF4E06301223B
S315080003B0042104A8ADF8103000F0DAFC0E4805A9AF
S315080003C002F0A2FD0D4B0E4A0020C3F8CC244FF0D4
S315080003D00212C3F8C424A2F58032C3F8C8241C222A
S315080003E0C3F8B42412B070BDB46E0008A05A320027
S315080003F0507400085474000800000A5000C00350E6
S315080004000200030073B54FF4E063064601A80C46E4
S315080004101546ADF8043000F01BFD46F080010E4885
S3150800042005F0C2FA05F0AAFC0B4E2544AC420BD1E6
S315080004304FF4E06301A8ADF8043000F0DBFC0020BF
S3150800044005F0B2FA02B070BD0021304605F096FC00
S3150800045004F8010BEAE700BF00000A50F7B54FF4AD
S31508000460E06605460C460D4F01A8ADF8046000F09D
S31508000470EFFC05F07F01384605F096FA05F07EFC9C
S315080004802146384605F07AFC01A8ADF8046000F06C
S31508000490B1FC002005F088FA03B0F0BD00000A5050
S315080004A01FB500248DF80B40FFF748FF05F08FFABB
S315080004B0642004F0B7F9012275200DF10B01FFF74E
S315080004C0A1FF9DF80B30472B24D102214C20FFF7C2
S315080004D0C5FF0F214E20FFF7C1FF1E2004F0A2F929
S315080004E0204605F09CFA204605F0AAFA0A4B012296
S315080004F05B8F022103A8ADF80C3000F039FC01230C
S3150800050018461A461946CDE9004302F04DFE204624
S3150800051004B010BD1020FBE7B46E000830B52DED11
S31508000520028B83B09FED1C8AB4EEC80AF1EE10FA6E
S315080005304FF00005ACBF06240724012005F06AFA2F
S3150800054001220DF107014F208DF80750FFF75AFFDA
S315080005509DF807104F2021F00F0121438DF8071051
S31508000560FFF77CFF01220DF107015020FFF74AFF34
S315080005709DF80710502021F00F012143FFF76EFF69
S31508000580284605F047FA9FED050A062C08FE000ADC
S3150800059003B0BDEC028B30BD00007A44000048432E
S315080005A013B50622044669461F20FFF72BFFBDF840
S315080005B000309FED127ADBBA07EE903AF8EEE77A4A
S315080005C067EE877ABDF80230C4ED007ADBBA07EE2B
S315080005D0903AF8EEE77A67EE877ABDF80430C4ED0C
S315080005E0017ADBBA07EE903AF8EEE77A002067EE72
S315080005F0877AC4ED027A02B010BD00BF0000003A47
S3150800060013B50622044669462520FFF7FBFEBDF80A
S3150800061000309FED127ADBBA07EE903AF8EEE77AE9
S3150800062067EE877ABDF80230C4ED007ADBBA07EECA
S31508000630903AF8EEE77A67EE877ABDF80430C4EDAB
S31508000640017ADBBA07EE903AF8EEE77A002067EE11
S31508000650877AC4ED027A02B010BD00BF00007A3D69
S3150800066030B52DED048B85B0044670B39FED188A1E
S315080006704FF4FA75B0EE489AF0EE488A01A8FFF7EB
S31508000680BFFFDDED017A39EE279ADDED027A78EEC5
S31508000690A78ADDED037A022038EE278A04F0C2F82D
S315080006A0013DEBD1DFED0B7A89EE277A84ED007AEE
S315080006B088EEA77A84ED017A88EE277A84ED027AA5
S315080006C0284605B0BDEC048B30BD2125F8E700BFF0
S315080006D0000000000000FA437FB502250C4E357075
S315080006E0FFF7DEFE044660B90DF1030005F0D8F900
S315080006F0044630B9032301A83370FFF7B1FF044657
S3150800070010B105F05DF900252046357004B070BDBE
S315080007105915002010B52DED028B82B00121022358
S31508000720B0EE408A134C00220846237005F099F96A
S31508000730B0EE480AFFF7F2FE0F4B602083ED000A81
S3150800074005F06DF9602005F07BF9062005F0C1F982
S31508000750072005F0D3F9322004F064F8012005F0EB
S3150800076092F901A805F0DFF90123237002B0BDEC68
S31508000770028B10BD5915002038100020054A127842
S31508000780012A04D000228260426002607047FFF7A7
S3150800079007BF00BF59150020054A1278012A04D060
S315080007A000228260426002607047FFF729BF00BFDF
S315080007B05915002008B5094B1B78012B01D00020DC
S315080007C008BD05F075F9064A136801331360002859
S315080007D0F5D0044A136801331360F1E75915002070
S315080007E03410002030100020064B1B681A7A022AA3
S315080007F004D812B11B68044A13607047032AF9D05B
S31508000800704700BF881500203C10002070B5A2B0C4
S315080008101C2200210CA805F042FC224B00240B9355
S315080008204FF4E1330D9302238DF839301E4BCDE991
S3150800083002440F9305238DF8423006238DF8443081
S315080008404FF470230494019313AD01AE0FCE0FC578
S31508000850164BCDE907442B60154B0994069318AD42
S3150800086006AE0FCE0FC52022124B13482B60134B32
S3150800087013A91D93124B2094CDE91E23114B0BAAE5
S315080008802193114B03F0C8F9044618B1AE210F485D
S3150800089005F0EAF900214FF4E13005F0C9F92046E0
S315080008A022B070BD68740008587400083C00015BEB
S315080008B001000F004400015BF41000205A150020C7
S315080008C0000101009C15002040100020F06E000871
S315080008D0014803F0C7BA00BFF410002008B5044861
S315080008E006F0DFF905F032F9BDE8084000F008B86F
S315080008F050740008014806F0D4B900BF50740008C7
S315080009002DE9F04796B0534E09AC35460FCD0FC4C6
S315080009102B6806F1140523600EAC0FCD0FC495E8BD
S315080009200F00DFF8488184E80F004B4806F0B9F954
S31508000930404606F0B6F94FF48073484FADF83C30A0
S31508000940474B38460B9309A90EAB0D9302F0DCFA18
S3150800095004210225B6F834A00DEB01000122ADF8FA
S3150800096004A000F005FAB6F836900022012102A884
S31508000970ADF8089000F0FCF9368F0122042103A88F
S31508000980ADF80C6000F0F4F90122042104A8354CF6
S31508000990ADF8105000F0ECF9334B4FF44870C4F83A
S315080009A0C8344FF00213C4F8C43403F58033C4F8CE
S315080009B0CC341C23C4F8B43403F086FF08A8ADF879
S315080009C0205000F045FA142003F07EFF08A8ADF881
S315080009D0205000F00FFA232003F076FF08A8ADF8A0
S315080009E0205000F035FAB921384605F0C7F908A8AD
S315080009F0ADF8205000F0FEF9002205A81146ADF822
S31508000A0014A000F0B5F9002206A81146ADF8189012
S31508000A1000F0AEF90122002107A8ADF81C6000F02D
S31508000A20A7F90122002108A8ADF8205000F0A0F986
S31508000A30384601F073FF00234046C4F8B434C4F8BE
S31508000A40C834C4F8C434C4F8CC3406F02DF916B04A
S31508000A50BDE8F087246F00085074000800000A50AB
S31508000A60E070720000C003500200010054740008D0
S31508000A700348044A0449121A921005F0E8B800BF60
S31508000A8070010008700100088815002008B5154B8C
S31508000A9083F30A8800F030F8FFF7EAFF124B134990
S31508000AA08B4212D30020124B12498B4218D3FFF700
S31508000AB0AFFB186850F82240586840F822400132C7
S31508000AC098688242F5D30C33EAE70022F8E71C68F7
S31508000AD044F8220001325C68A242F8D30833E4E7FE
S31508000AE00022F8E7000000207C76000888760008D7
S31508000AF0887600088876000870B54FF48041124B56
S31508000B00124A134D9A60D3F8882005F5005442F42A
S31508000B107002C3F888200F4A91664FF0FF322266AA
S31508000B200D4A62660222C3F8D020BFF34F8FBFF387
S31508000B306F8F4FF44036002003F004F80020E6607B
S31508000B4002F0CEFF2E6170BD00ED00E00000000847
S31508000B500080004400900050F7FF3700014B1860F2
S31508000B60704700BFB4150020054B1860054B1B6F76
S31508000B7003F00703032B01D105F0C2BC704700BF81
S31508000B80BC1500200080005038B504460D4601B15A
S31508000B9018B94521044805F067F8236813B92B608E
S31508000BA0256038BD1C46F8E75E6F000810B5044698
S31508000BB018B95621044805F057F8206818B1036893
S31508000BC023600023036010BD5E6F000807B500238D
S31508000BD02948019306F065F84FF440730122042171
S31508000BE06846ADF8003000F0C3F80122234B052013
S31508000BF0C3F8442401A906F04FF8002839D1204B40
S31508000C00D3F8F02042F00102C3F8F020D3F8FC2014
S31508000C1042F08072C3F8FC201A4AA3F55D431A60B5
S31508000C20019B194A03F5D52303F2FC43B3FBF2F300
S31508000C30164A013B13610223C2F8F0304FF4807361
S31508000C40C2F804334FF06043114AC3F8B02F114A73
S31508000C50C3F8802ED3F8002E42F48072C3F8002E13
S31508000C60FF2283F82020D3F8002E22F48072C3F8DE
S31508000C70002E03B05DF804FB5074000800D0035042
S31508000C8000ED00E0FF030040F8590D00000004E005
S31508000C9055CEACC50900010030B54FF06043D3F816
S31508000CA0802ED20715D501240B4D8440D5F8FC209B
S31508000CB042F08072C5F8FC20D3F8002E2243C3F810
S31508000CC0002E53F82020002AF0D003F82010002028
S31508000CD030BD1120FCE700BF00ED00E02DE9F04132
S31508000CE00C2504464FF00108124E0CB314F001000F
S31508000CF00BD0002024F0010405FB00625768002F82
S31508000D00F3D09168C0B2B847EFE7224601302028F1
S31508000D104FEA520201D0D307F8D508FA00F20F2895
S31508000D2024EA0204E8D9103805FB0062B432E5E784
S31508000D30BDE8F0811011002008B50C4805F0B1FF98
S31508000D40192002F0E7FE28B1192002F0FBFE19204F
S31508000D5002F0C6FE1A2002F0DDFE28B11A2002F0C3
S31508000D60F1FE1A2002F0BCFE002008BD50740008EF
S31508000D702DE9F0410E461746044638B993211A481C
S31508000D8004F072FF22252846BDE8F0810F290CD809
S31508000D90037883B1013BDBB2022B06D8134A32F83B
S31508000DA013306278D340DB0707D497210E4804F046
S31508000DB05BFF2125E7E7FF23F3E70D4BD3F8105335
S31508000DC02DB19B21084804F04FFF0225DBE705F00B
S31508000DD05DFF80463A462046314602F02FFC4046E3
S31508000DE005F04FFFCFE700BF986F0008D66F0008E1
S31508000DF000C0035038B5044628B91348E42104F066
S31508000E0033FF222038BD037883B1013BDBB2022BC6
S31508000E1006D80E4A32F813306278D340DB0707D477
S31508000E200948E82104F020FF2120EBE7FF23F3E738
S31508000E3005F02CFF0546204605F038FC284605F047
S31508000E4020FF0020DEE700BF986F0008D66F000875
S31508000E5038B5044628B91348FC2104F005FF2220BA
S31508000E6038BD03788BB1013BDBB2022B06D80E4A9C
S31508000E7032F813306278D340DB0708D409484FF4B8
S31508000E80807104F0F1FE2120EAE7FF23F2E705F07E
S31508000E90FDFE0546204602F09BFB284605F0F1FEBE
S31508000EA00020DDE7986F0008D66F000808B502F045
S31508000EB0BBFB054B00F0553020F05020C3F820044A
S31508000EC0BDE80840FFF70ABF00E0035008B502F086
S31508000ED0ABFB054B00F0AA3020F0A020C3F8200495
S31508000EE0BDE80840FFF7FABE00E003502DE9F04FD1
S31508000EF085B09A46554B06461B780F461546DDF8CB
S31508000F003C909DF844B0DDF85080002B00F09780A7
S31508000F10072A00F296800E9B002B00F09280B9F10A
S31508000F20000F00F08E80129BB3F5006F00F38980E6
S31508000F30012803D1109B002B00F08380444B03EB60
S31508000F4005131B7B002B7ED0424C102200216846DD
S31508000F5005F0A5F804EB45141022A7BB3946204630
S31508000F6005F09DF843F210036380BBF1000F03D12F
S31508000F70E37843F00303E370364A0E9B02EB451C05
S31508000F80CCE90193129B6901581E9DF84C30C0F3B9
S31508000F900A0003F003039B0643EA001E53582E4833
S31508000FA0012E00EA03004EEA0003CDF800A05350D4
S31508000FB017D0B8F1000F2ED19CF8023068F304134D
S31508000FC08CF8023027E00021204605F068F84FF437
S31508000FD044736380BBF1000FCED1E37843F030034E
S31508000FE0C9E713230CF1100ECCF80C309CE80F005F
S31508000FF08EE80F006FF00301DCF81C20109B61F3EC
S315080010009F02012FCCF81C20CCF8143003D1CCF861
S315080010101890CCF8043000270D4A290102EB051375
S3150800102042F80180159A28465A60694622469F600A
S315080010305E7302F0F1F9384605B0BDE8F08F07484F
S31508001040FAE70748F8E70748F6E700BF7A150020E9
S3150800105078130020781200200F80FFF3028000F03A
S31508001060018000F0078000F038B5124B05461B7862
S31508001070DBB1E0B105F00AFE0F4A00231146147BE6
S3150800108054B92B6001251A0101EB03131D738C500B
S3150800109005F0F7FD204638BD0133082B02F1100292
S315080010A0EDD105F0EEFD0548F5E70548F3E70548F7
S315080010B0F1E700BF7A15002078130020048000F0BD
S315080010C0028000F0018000F038B505F0DFFD00234E
S315080010D005460B4A147B6CB90133082B02F1100242
S315080010E0F8D102F01BF9074B28461C7005F0C9FD1C
S315080010F0204603E0284605F0C4FD034838BD00BF76
S31508001100781300207A150020058000F010B50D4BE5
S3150800111004461B7893B1072812D805F0B7FD0A4B89
S3150800112003EB04131A7B2AB100241C7305F0A9FDEE
S31508001130204610BD05F0A5FD0448FAE70448F8E77F
S315080011400448F6E77A15002078130020068000F098
S31508001150028000F0018000F013B5154B18680023D3
S3150800116001908DF8043005F091FD124B1C7824B1DE
S3150800117005F087FD104802B010BD01221A7005F06F
S3150800118080FD0E4B01A81C731C7783F82C4083F84E
S315080011903C4083F84C4083F85C4083F86C4083F805
S315080011A07C4008238DF8073002F0EEF82046E2E787
S315080011B0DC6F00087A150020038000F07813002001
S315080011C0F8B50D4D2D7885B1072810DC0B4D0601B5
S315080011D005EB0014277B67B1AB510025069BA5607C
S315080011E0636002F019F92846F8BD0548FCE705488A
S315080011F0FAE70548F8E700BF7A15002078130020BB
S31508001200028000F0018000F0078000F008B50A4A65
S3150800121012785AB107280BD8084A02EB00131B7B31
S3150800122043B1002102F090F8002008BD0448FCE70D
S315080012300448FAE70448F8E77A15002078130020EE
S31508001240028000F0018000F0078000F008B50A4A25
S3150800125012785AB107280BD8084A02EB00131B7BF1
S3150800126043B1012102F070F8002008BD0448FCE7EC
S315080012700448FAE70448F8E77A15002078130020AE
S31508001280028000F0018000F0078000F02DE9F041AF
S31508001290174B1F6D5B6D1F4000D5FEE70126002525
S315080012A0144CDFF85880374218D02368C8F85060C5
S315080012B0A3B1A168284601316268A1609847637B9B
S315080012C0012B0BD150B90C4B03EB45131A7B60F37A
S315080012D041021A731A7F60F341021A770135082D05
S315080012E04FEA460604F11004DDD1BDE8F08100BFDF
S315080012F000000450781300207812002000200450C3
S31508001300044BD3F88420D206FBD4D3F88400C0F368
S31508001310811070470040005038B5104B0546D3F889
S3150800132000310C4603F00303022B0BD0032B0DD020
S31508001330012B0FD105F0FEF8032305B1286004B18F
S31508001340236038BD05F048F90923F6E705F0F8F8F3
S315080013500823F2E701230020EFE700BF00800050D2
S3150800136038B5104B0546D3F840310C4603F0030355
S31508001370022B0BD0032B0DD0012B0FD105F072FCDD
S315080013800A2305B1286004B1236038BD05F024F9A5
S315080013900923F6E705F069FC0C23F2E70123002090
S315080013A0EFE700BF0080005038B5104B0546D3F86C
S315080013B060310C4603F00303022B0BD0032B0DD030
S315080013C0012B0FD105F04EFC0A2305B1286004B1A4
S315080013D0236038BD05F000F90923F6E705F045FC5A
S315080013E00C23F2E701230020EFE700BF008000503E
S315080013F038B5104B0546D3F840320C4603F00303C4
S31508001400022B0BD0032B0DD0012B0FD105F02AFC94
S315080014100A2305B1286004B1236038BD05F0DCF85D
S315080014200923F6E705F021FC0C23F2E70123002047
S31508001430EFE700BF0080005038B5124B0546D3F8D9
S3150800144080300C4603F00303022B0BD0032B0DD080
S31508001450012B0FD105F034F80E2305B1286004B12D
S31508001460236038BD05F070F80723F6E705F022F883
S315080014700623F2E7044841F2142104F0F5FB0023A1
S315080014801846EAE700800050E06F000838B51A4BA6
S315080014900546D3F820010C4600F00700062821D897
S315080014A0DFE800F028040C1410181C0005F002F8F8
S315080014B0052305B1286004B1236038BD05F03AF864
S315080014C00323F6E705F040F80723F2E705F02EF8C0
S315080014D00223EEE704F0EEFF0623EAE705F02AF812
S315080014E00423E6E7054841F2912104F0BDFB0023F9
S315080014F01846DEE70123DCE700800050E06F0008AD
S3150800150038B5194B0546D3F828310C4603F00703BE
S31508001510013B052B20D8DFE803F003131B0F0B173D
S3150800152004F0C8FF052305B1286004B1236038BD5F
S3150800153004F0C0FF0623F6E705F006F80723F2E7EE
S3150800154004F0F8FF0323EEE704F0F4FF0423EAE7C8
S3150800155004F0ECFF0223E6E7044841F2990104F09F
S3150800156083FB00231846DEE700800050E06F000882
S3150800157037B500230193194B0546D3F820320C469C
S3150800158003F00703042B1FD8DFE803F025030F1425
S315080015901900002101A8FFF7B3FF12230DB1019A24
S315080015A02A6004B1236003B030BD04F0CDFF0723E1
S315080015B00190F3E705F056FB0A230190EEE705F0E4
S315080015C00BF809230190E9E741F25601044804F0B3
S315080015D04BFB0023E2E70123E0E700BF0080005051
S315080015E0E06F0008F7B50027144B0197D3F8804140
S315080015F0064604F00304022C0D4614D0032C0DD025
S31508001600012C14D1394601A8FFF740FF10240EB16A
S31508001610019B336005B12C6003B0F0BD04F094FF64
S3150800162007240190F3E704F081FF0190EFE741F208
S31508001630E631034804F018FB3C46E8E70080005012
S31508001640E06F000838B5164B0546D3F800020C467D
S3150800165000F00700042819D8DFE800F020030B0F74
S31508001660130005F0FFFA0A2305B1286004B12360C8
S3150800167038BD04F0B1FF0923F6E705F0F6FA0C23A6
S31508001680F2E704F03DFF0F23800AEDE7054841F233
S31508001690A44104F0E9FA00231846E5E70123E3E745
S315080016A000800050E06F000838B5164B0546D3F8A1
S315080016B008020C4600F00700042819D8DFE800F0F5
S315080016C020030B0F130005F0CDFA0A2305B1286095
S315080016D004B1236038BD04F07FFF0923F6E705F05F
S315080016E0C4FA0C23F2E704F00BFF0F23800AEDE798
S315080016F0054841F2DC4104F0B7FA00231846E5E74D
S315080017000123E3E700800050E06F000837B50023A7
S315080017100193184B0546D3F860320C4603F00703CD
S31508001720013B032B1FD8DFE803F0020E1914002132
S3150800173001A8FFF7ABFE10230DB1019A2A6004B188
S31508001740236003B030BD002101A8FFF709FE11236D
S31508001750F2E704F0F9FE07230190EDE704F0E6FE50
S3150800176002230190E8E741F2FD01034804F07CFA00
S315080017700023E1E700800050E06F000837B500233A
S315080017800193184B0546D3F894320C4603F0070329
S31508001790013B032B1FD8DFE803F0020E19140021C2
S315080017A001A8FFF773FE10230DB1019A2A6004B150
S315080017B0236003B030BD002101A8FFF7D1FD112336
S315080017C0F2E704F0C1FE07230190EDE704F0AEFE50
S315080017D002230190E8E741F23011034804F044FA85
S315080017E00023E1E700800050E06F000873B500248D
S315080017F00F4B0194D3F87032064603F00303012B0E
S315080018000D4607D0022B11D041F25B11094804F0AE
S315080018102BFA04E0214601A8FFF7A2FD11240EB118
S31508001820019B336005B12C6002B070BD1524F6E744
S3150800183000800050E06F000808B5334B98424FD03F
S3150800184027D8324B984245D017D8314B98423ED0CC
S315080018500AD838B12F4B984239D041F2BB312E48BD
S3150800186004F002FA002034E02C4B98422FD02C4B7F
S315080018709842F2D12B4B586E2BE02B4B98422CD02A
S3150800188003F5371303F5D8639842E6D1254B986FCD
S315080018901FE0264B98422FD00CD8254B984223D0D0
S315080018A0244B984224D0244B9842D6D11D4BD3F8CA
S315080018B084000EE0214B984222D003F5740303F509
S315080018C010539842C9D1174BD3F8980001E0154B2D
S315080018D0986D08BD134B186FFBE7124B586FF8E766
S315080018E0104BD3F88000F4E70E4BD3F88800F0E7E6
S315080018F00C4BD3F88C00ECE70A4BD3F89000E8E7DA
S31508001900084BD3F89400E4E780BA8C01405DC60022
S3150800191080841E0040420F00E06F000800093D0069
S31508001920C0CF6A000080E00F0024F400007E560352
S3150800193080D54302006CDC020048E8010090D00321
S3150800194010B5B0F5207F2ED009D8B0F5007F24D089
S3150800195003D868B1B0F5C07F0AD000241BE0B0F503
S31508001960607FFAD1124BD3F88040C4F3011412E019
S315080019700F4B1C6F230B13F00E0FC4F303340AD05E
S31508001980072C08D00F2C06D0032C04D04FF4227154
S31508001990084804F069F9601C10BD054BD3F890405F
S315080019A0C4F30464F7E7024B1C6FC4F38024F2E720
S315080019B000800050E06F000838B54FF48032104BB5
S315080019C004469A6600200D46FFF7BAFF41F67132C3
S315080019D00C4B6043DC69DA635A6804F4803422F4F9
S315080019E040125DB90849884294BF002001200005CD
S315080019F002435A600CB10022DA6338BD0349F2E7A4
S31508001A000090005000000350005A6202002D310178
S31508001A1038B5430904460D460ED140F235310D4816
S31508001A2004F022F9002304F01F0485B103F580535E
S31508001A300122A2401A6038BD012B04D0022B04D023
S31508001A4040F24331EBE7044BEDE7044BEBE703F5D4
S31508001A500053EDE7E06F000864800050688000508E
S31508001A6030B585B00021B0F5807F0446CDE9001178
S31508001A7000F0D3803DD85E2833D85E2833D8DFE817
S31508001A8000F0483232323232323232323232323286
S31508001A903232323232323232323232323232323218
S31508001AA0323248AD48ADBDBDBDBDBDADC7516EDD19
S31508001AB051ADADAD3232323232323232ADADAD81A8
S31508001AC0E7AD32323232323232323232323232BD2D
S31508001AD0484848E25151EC9066C232323232329866
S31508001AE0480080286AD040F2A441604804F0BCF857
S31508001AF067E0B0F5D06F00F0A18035D8B0F5607F0B
S31508001B0077D01AD8B0F5007F5ED005D8B0F5C07F7B
S31508001B10E9D104F0F5FC53E0B0F5207F5ED0B0F5CE
S31508001B20407FE0D104F0ECFC04464FF42070FFF748
S31508001B3007FFB4FBF0F4640859E0B0F5B06F67D05E
S31508001B400AD8B0F5806F59D0B0F5A06FCBD1002177
S31508001B506846FFF70DFD34E0B0F5C06FC3D100212C
S31508001B606846FFF7FDFB2CE0B0F5106F6BD00ED87A
S31508001B70B0F5086F76D0B6D8B0F5E06F68D0B0F596
S31508001B80F06FB0D100216846FFF70EFC19E0B0F5FA
S31508001B90406F38D00AD8B0F5206F5ED0B0F5286F00
S31508001BA0A1D100216846FFF721FE0AE0B0F5486F8B
S31508001BB099D100216846FFF7E1FD02E004F080FCB8
S31508001BC00090009805B030BD04F07AFC0546204622
S31508001BD0FFF7B6FEB5FBF0F50095F2E704F090FCCA
S31508001BE004464FF42070FFF7ABFEB4FBF0F4009404
S31508001BF0E7E701A8FFF720FC019DE8E70021684612
S31508001C00FFF744FCDDE700216846FFF779FCD8E7D3
S31508001C1000216846FFF7E6FCD3E74FF0E023029180
S31508001C201B695B0705D504F06BFC0290029B0093C9
S31508001C30C7E703A902A8FFF793FBF7E70021684661
S31508001C40FFF700FDBDE700216846FFF72DFDB8E761
S31508001C5000216846FFF7CCFBB3E700216846FFF78B
S31508001C6055FDAEE76846FFF757FBAAE7E06F0008A1
S31508001C7008B58020FFF7F4FE034B98429EBF4FF449
S31508001C808032024B1A6708BD005A620200A0005053
S31508001C901FB503460020B3F5807F019000F0C5808C
S31508001CA063D85D2B54D84C2B06D82D2B46D8232B1E
S31508001CB02AD840F28951A7E04D3B102BF9D801A24A
S31508001CC052F823F0211E0008B31C0008B31C0008B4
S31508001CD0B31C0008CB1D0008B31C0008B31C000881
S31508001CE07B1E0008E91D00088F1D0008711E0008EC
S31508001CF0B31C0008B31C0008B31C0008B31C00087A
S31508001D00B31C0008851E0008243B092BD1D801A264
S31508001D1052F823F0211E0008211E0008211E000883
S31508001D20211E0008211E0008B31C0008111E000809
S31508001D30B31C0008AB1D0008571E00083D2B00F019
S31508001D4085803E2BB5D1002001A9FFF751FB63E042
S31508001D50802BAED14E4B1B6F03F00703013B032BC1
S31508001D6050D8DFE803F04D46494BB3F5F06F6DD018
S31508001D7020D8B3F5B06F4BD00ED8B3F5607F73D0CB
S31508001D8097D3B3F5806F4BD0B3F5A06F91D10020F0
S31508001D9001A9FFF7EDFB3FE0B3F5D06F5BD0B3F5D4
S31508001DA0E06FD0D0B3F5C06F83D1002001A9FFF74B
S31508001DB0D7FA31E0B3F5206F5FD00BD8B3F5086FCB
S31508001DC04ED0B3F5106F7FF474AF002001A9FFF76A
S31508001DD06BFC21E0B3F5406F4AD0B3F5486F51D09C
S31508001DE0B3F5286F7FF465AF002001A9FFF7FEFC65
S31508001DF012E0052301930FE00323FBE70823F9E725
S31508001E000223F7E740F2D641224803F02DFF03E00C
S31508001E10002001A9FFF7E6FB019805B05DF804FB71
S31508001E20002001A9FFF732FBF6E74FF0E023029006
S31508001E301B695B0705D504F063FB0D230393039B1E
S31508001E40D8E703A902A8FFF78BFAF8E7002001A94B
S31508001E50FFF7AAFAE0E7002001A9FFF7F3FBDBE7A3
S31508001E6001A9FFF759FAD7E701A9FFF7E5FAD3E77A
S31508001E70002001A9FFF744FBCEE7002001A9FFF7E0
S31508001E8045FCC9E7002001A9FFF778FCC4E700BFB5
S31508001E9000800050E06F00084FF48032074B084975
S31508001EA0586E03F580535A664B6A23F001034B625A
S31508001EB0C3035CBF034B5A66704700BF00800050DF
S31508001EC000C0075000A0005038B5036804460F2B21
S31508001ED004D940F68A317C4803F0C6FE63680F2BA6
S31508001EE004D940F68D31784803F0BEFEA3680F2B5F
S31508001EF004D94FF43961744803F0B6FE237B0F2BDF
S31508001F0004D940F69331704803F0AEFE637B0F2B7D
S31508001F1004D940F696316C4803F0A6FEA37B3F2B06
S31508001F2004D940F69931684803F09EFEE37B3F2BBF
S31508001F3004D940F69C31644803F096FE2369032BC6
S31508001F4004D940F69F31604803F08EFE6369032B7F
S31508001F5004D940F6A2315C4803F086FEE369032BF8
S31508001F6004D940F6A531584803F07EFE8020FFF7D5
S31508001F708FFE032800F083804FF48012534B4FF0F6
S31508001F80A0615A6645F60E02514BC3F88020514AA5
S31508001F9091624FF4803102F5805291629A6DD203B4
S31508001FA0FCD4996D11F08041FBD1D4E900021205E9
S31508001FB042EA0062E07B0243207B42EA0042607B01
S31508001FC042EA0032A07B42EA80121A619869D4E993
S31508001FD00452120642EA856200F000400243A07EDF
S31508001FE0E57E0243207E42EA0042607E42EA002203
S31508001FF09A611A6AE06922F00F0242EA8502364DB2
S3150800200000283DD11A6294F82420996A94F8200091
S31508002010D200294042EA40120A4394F8211042EAC3
S31508002020011242F480329A622C49294A936D31EAA8
S315080020300303FBD14FF08071264881621369A568B6
S3150800204023F4700343EA055313614FF00043836199
S3150800205094F822300BB9224B996294F823303BB995
S315080020604FF480321E4B9A62194A936D5B00FCD47A
S3150800207094F825301BB1164B1A4AC3F8802038BD90
S31508002080024342F0080202281A6208D119614FF485
S315080020900852996114484FF47F4103F028FE0C4911
S315080020A094F822308A6A94F820001B062A4043EAEC
S315080020B04013134394F8242043EAC20394F82320D8
S315080020C043EA02438B62D3E7E06F000800900050B2
S315080020D00040005A0050005AC7FFFEFE03000100E8
S315080020E00060005AF1A7FFFF3440005A014B93F9EC
S315080020F0000070472416002010B543680446072BD5
S3150800210004D940F6E6512A4803F0AEFDA368032B2E
S3150800211004D940F6E851264803F0A6FD2378032B98
S3150800212004D940F6EA51224803F09EFD94F901309D
S31508002130002B04DA40F6EC511D4803F095FD4FF4E8
S3150800214000011C4A637851664FF4D151022002F50A
S31508002150B832516218494F2B48604FF0010028BF2A
S315080021604F2301F5805148601169C903FCD42178D1
S3150800217043EA01235361D4E901131B0143EA01230E
S31508002180617B0B43217B43EA41039360E37BA17B9D
S315080021901B0143EA4113617C0B43217C43EA41035B
S315080021A05360A37C13B16FF4D153536210BD00BFC3
S315080021B0E06F00080090005000100250014B188094
S315080021C0704700BF22160020014B1880704700BFD9
S315080021D02016002008B54FF48002184B5A660223D1
S315080021E0174A5360936813F48033FBD1012822D130
S315080021F004F0A0F9134B984215D003F5122303F502
S31508002200F863984213D0104B00EB8002400AB3FBE8
S31508002210F0F3520A0A49CA620B6301234B62002291
S31508002220074B5A6008BD45F67A13084AF2E745F6A1
S315080022301A03074AEEE75362F1E700BF0090005021
S315080022400040025000F0490264666666D8B8050088
S31508002250BBCF050038B5B0F5207F77D00ED8B0F5DE
S31508002260007F61D003D890B3B0F5C07F2FD04FF46C
S315080022704671BDE838403D4803F0F6BCB0F5607FCE
S31508002280F5D13B4A4C1ED2F8FC5015F080751EBF9E
S31508002290D2F8FC3023F08073C2F8FC30032C04D942
S315080022A040F2F721314803F0DFFC324AD2F8803099
S315080022B023F0300343EA0413C2F8803035B12C4AC0
S315080022C0D2F8FC3043F08073C2F8FC3038BD4C1E9F
S315080022D0012C0AD9102903D8274BCB40DB0704D495
S315080022E040F2CB21214803F0BFFC03F00FFD03F0B9
S315080022F01BFD4FF48031214B1E4A1967136F23F4D7
S31508002300704343EA0433136704F0FAF80446FEF709
S31508002310F7FFC0F10201204603F000FD00F048F87F
S31508002320BDE83840FFF7A4BC4C1E1F2C04D94FF457
S3150800233043710E4803F098FC0E4AD2F8903023F009
S31508002340F85343EA0463C2F89030BFE74C1E012CE9
S3150800235004D940F21231054803F086FC054A136F8A
S3150800236023F4806343EA84231367AFE7E06F00082A
S3150800237000ED00E0008000501001010000900050C0
S3150800238008B50121022000F099F94FF42070FFF7F3
S31508002390D7FA054B187003F0B9FC03F0C5FC4FF4E7
S315080023A08032024B1A6708BD7B150020009000504A
S315080023B008B54FF4C070FFF753FBBDE80840044961
S315080023C0884294BF012102214FF42070FFF742BFD3
S315080023D080F0FA0238B5044604F092F80546FEF78E
S315080023E08FFFC0F10201284603F098FC0121002066
S315080023F000F0B8F92CB1FFF7DBFFBDE83840FFF76E
S3150800240037BC034B4FF420701978FFF723FFF4E726
S315080024107B1500202DE9F0410546FFF70DFA431E0E
S315080024200333044604D940F6E2113B4803F01CFC8A
S315080024304FF4C022394B5A6603F598335A68012A75
S3150800244004D137494A605A689207FCD48020FFF7BE
S315080024501FFC052807D103F059FC03F065FC4FF46F
S3150800246080322E4B1A672F4B24F040749D4239D088
S315080024702D4B9D4239D004F01DF88542064603D9F6
S315080024800121284600F06EF9284FFB6813F0060F65
S31508002490FBD1D7F80880BC60BB68634013F4F81F0B
S315080024A026D12846FEF75AFB8020FFF7F1FB0528C0
S315080024B014D104F025F8A842044604D940F63B2175
S315080024C0154803F0D1FBFEF71BFFC0F102012046B9
S315080024D003F024FCFFF76CFFFFF7CAFBAE4213D2EA
S315080024E0BDE8F08144F00074C5E744F08074C2E7A3
S315080024F040F62A21084803F0B7FB8020C7F8088071
S31508002500FFF7C6FB052805D0BDE8F04101210020EC
S3150800251000F028B93546CCE7E06F00080090005077
S3150800252000E0015040420F0080841E000000015068
S3150800253070B54E4B0546984273D041D8A3F5B703FC
S31508002540A3F55863984265D033D8494B494E98420B
S3150800255051D017D8002877D041F2DE11464803F04B
S3150800256083FB40F68671444803F07EFB4FF4002255
S31508002570404B5A663E4B9D4276D000243F4A9542D0
S3150800258036D05DE03D4B984227D03D4B9842E3D18B
S315080025903C4BD3F8A040621E033224F040744CD959
S315080025A040F68671344803F05FFB4FF400237366E8
S315080025B0E4E7354B9842CFD1324BD3F8BC402CE0F8
S315080025C0324B984231D0324B984232D0314B9842F6
S315080025D0C2D12C4BD3F8C8401FE02A4BD3F8A040F1
S315080025E0621E033224F04074DAD84FF4002373666F
S315080025F044F0807424E0234BD3F8A040621E0332D3
S3150800260024F040742AD84FF400237366234643F017
S31508002610007415E01B4BD3F8B840621E154E033202
S31508002620BBE7184BD3F8C040F7E7164BD3F8CC40B6
S31508002630F3E7144BD3F8D040EFE74FF40023736663
S315080026404FF0B442946070BD40F686710A4803F0B4
S315080026500BFB4FF400232C467366F1E740F68671B0
S31508002660054803F001FBCEE70023D0E7C0EA2101C5
S3150800267040420F0000900050E06F000880841E0062
S3150800268000093D000080E00F0024F4000048E8013E
S31508002690005A620280BA8C01024A536B0342FCD18B
S315080026A0704700BF00400950034A0179D36E23F0F2
S315080026B030030B43D366704700400050F8B5044614
S315080026C0244BD3F88420D006FBD4D3F88430C3F344
S315080026D081139C423CD003F0F3FE012C05460BD136
S315080026E01D4B984204D940F28F711C4803F0BCFA7E
S315080026F00121284603F012FB04F0BFFA4FF00072DE
S31508002700174B07465A66204603F013FB4FF48063BF
S31508002710104E621E93403367736E9A0103D4D6F83F
S3150800272084309B060AD5384604F0A2FA022C0FD14B
S315080027302846BDE8F840002103F0F0BAD6F8843000
S315080027409906E9D540F2A771044803F08DFAE3E744
S31508002750F8BD00BF00400050005A6202177000081A
S315080027600060005010B50C4608B903F0A9FE074BE7
S3150800277021461B783BB1064B984204D80120BDE898
S315080027801040FFF79BBF0220F9E700BF7C15002029
S31508002790005A620238B54FF00042244B244C5A6660
S315080027A04AF6CD33656C014605F00105236428BB5E
S315080027B00120FFF771FF6368DB0715D51D4B5860CD
S315080027C008461D4B226BD2070CD4984208D1072421
S315080027D015B1174B194A1A6403F0ACFA204638BDEE
S315080027E00130EFE79842F2D00024F1E70132236B7B
S315080027F013F0080305D08A42F8D1E8E700220E490B
S31508002800F5E78A42E3D020210A4A91620121A2F51E
S31508002810805251600649084A886A800603D4934262
S31508002820D5D00133F8E79342DDE700BF00900050AA
S31508002830004009500060095040420F003254FFFF23
S3150800284038B54FF00042164B01465A664AF6CD3364
S31508002850144C154A656C236443780B205B0043F0DF
S315080028600103D363FFF718FF63688A7823F4F873C4
S3150800287043EA02136360CA784B7943EA0223A360EA
S315080028800A798B7943EA022323610878FFF782FFE6
S31508002890EB0744BF054B236403F04CFA012038BD0F
S315080028A00090005000400950004000503254FFFF8D
S315080028B070B50F28044605D940F66861124803F03A
S315080028C0D3F90F244FF00042104B11495D6E03F502
S315080028D080535A664AF6CD334E6C80200B64FFF758
S315080028E0DBFE0B6A23F00F0323430B62F30744BF97
S315080028F0084B0B64002DA2BF4FF00042064B5A66E8
S3150800290003F018FA70BD00BF177000080080005069
S31508002910004009503254FFFF00A0005010B503F0E4
S315080029200EFA042300F5805100F500520B6113617D
S315080029300B6113610B6113610B611361202341F273
S31508002940020103610023C360836041614FF4A02143
S315080029508361836541620549C36103628362C36219
S3150800296043630365D164036310BD00BFFF3F0D03D6
S3150800297038B5174B044698420D4607D0154B984272
S3150800298004D040F26911144803F06EF925B92046BF
S31508002990BDE8384003F0D3B9012204F580535A60E4
S315080029A040F6FF71204605F00F0203F0C4F9A26352
S315080029B0782103F0C0F905F001036A0748BF43F020
S315080029C00203A26C02F003029A42FAD138BD00BF94
S315080029D00000015B00000A504E700008F8B5054675
S315080029E00C46164622B940F227216B4803F03CF9FB
S315080029F06A4B9D4202D19CB956240DE0684B9D4214
S31508002A0047D040F22A21644803F02EF944B940F22F
S31508002A107931614803F028F92046FFF721F8044682
S31508002A20AB68D80745D5B44204D24FF40D715A485D
S31508002A3003F01AF9B4FBF6F46F68013CFF2C07F0B3
S31508002A40010704D94FF40F71534803F00DF9240612
S31508002A504FB32821284603F06EF9AB6C99071CD1B1
S31508002A60AB6CDA071BD4AE6C16F0020619D140F22D
S31508002A704921494803F0F8F8284603F060F92B691C
S31508002A80314623F07F4323432B61BDE8F840FFF727
S31508002A906FBF002CC4D15724BEE70526ECE70926EC
S31508002AA0EAE70626E8E72B6923F07F4323432B61F1
S31508002AB0F8BD6B68012B04D04FF41771364803F044
S31508002AC0D3F8AB6DDB07AB6848BF760003F0E003CD
S31508002AD0402B42D009D893B1202B1AD040F29E2120
S31508002AE0BDE8F8402C4803F0BFB8602B42D0802BD5
S31508002AF0F4D106EB4603A34247D801230DE0B6EB13
S31508002B00141F04D94FF42171234803F0ADF810239C
S31508002B1003E0B6EBD40F1AD8082373436401B4FB59
S31508002B20F3F4204F203CB7EBC40F4FEAC40604D297
S31508002B3040F2A921184803F097F828463E4001219B
S31508002B4003F0F9F82E63BDE8F84003F0F4B840F254
S31508002B508921114803F088F8DEE70623B4FBF3F36E
S31508002B60B34201D30623D8E740F28E210A4803F080
S31508002B707BF8F7E7B6EB940F01D80423CDE740F2CC
S31508002B809321054803F070F8F7E74FF426710248D9
S31508002B9003F06AF8B1E700BF4E7000080000015B59
S31508002BA000000A50F8FF7F002DE9F0419846436877
S31508002BB004460E4617461BB140F6FF7103F0BBF8F4
S31508002BC02046FFF7ABFEF189737B62690B43318AB6
S31508002BD022F44C5222F00F020B4313436361A2689E
S31508002BE096F818C0337B22F0804222F0E2024CEAC3
S31508002BF00303134372691343B268A3601AB9A3683F
S31508002C0043F00043A360F06904F58053002878D0A8
S31508002C10857A017A6D04D4F808E045EA81556E494B
S31508002C200EEA01010D43818801F4C0410D43417844
S31508002C3045EA8105417B45EAC105817B45EA0115DF
S31508002C40817845EA8125A560D4F80CE0D0E9041519
S31508002C502943624D0EEA05052943857941EA85210E
S31508002C60C57941EA4521E16001785D4D012914D114
S31508002C70E16841F00401E160AC4200F092805949F4
S31508002C808C420CBF01214FF0FF31490101F1A041EF
S31508002C9042F2944501F5703114E003297BD1E168CD
S31508002CA041F00401E160AC4279D04E498C420CBF38
S31508002CB001214FF0FF3141F29445490101F1A0414C
S31508002CC001F570314FF0020E41F805E0417A99623C
S31508002CD019B1E16841F40061E160C17A59B1E1686E
S31508002CE041F40041E1603E498C425CD1017B3E4D96
S31508002CF001F00F016967616AC07B21F00301014396
S31508002D0061622FB197F82010002956D00121196267
S31508002D10B8F1000F2DD0BCF1000F02D04FF40041DE
S31508002D2099652F49B8F822508C4298F8211051D04D
S31508002D302C48844213D10120112934BF4FF0010CCD
S31508002D404FF0020C294FB5F5006F07F800C094BF85
S31508002D504FF0010C4FF0020C254F07F800C0A06D8C
S31508002D60294320F4F95020F01E000143A1650121F2
S31508002D709965012159601AB120467168FFF72EFE40
S31508002D8020463178FFF7F4FDA36CDB4313F4405F6C
S31508002D90FAD1BDE8F0810239012984D96CE700210E
S31508002DA089E7002171E70F498C4201BF017B0E4D6F
S31508002DB001F00F01C5F880109DE7E06997F8221029
S31508002DC097F8215020F009002943014341F00101F9
S31508002DD0D9619DE70020AFE7E39BBDFFFFF9F087C8
S31508002DE00000015B00000A50009003507F15002088
S31508002DF07D15002070B5134B054698420C4606D043
S31508002E00114B984203D07021104802F02DFF1CB9CF
S31508002E1072210E4802F028FF237B802B03D17621EE
S31508002E200A4802F021FF637B032B03D9792107485F
S31508002E3002F01AFF002321462846BDE870401A46CC
S31508002E40FFF7B2BE0000015B00000A504E70000892
S31508002E5070B52B4B054698420C4643D119B98C21BF
S31508002E60284802F001FF5620FEF712FF0C2807D06B
S31508002E70A0F10903012B03D9A0F11103012B3AD8BC
S31508002E80637B032B03D9AD211E4802F0EDFE237B9D
S31508002E90802B03D0AF211B4802F0E6FE6369B3F12D
S31508002EA0804F03D0B121174802F0DEFE238A23F4AF
S31508002EB000539BB2B3F5805F03D0B321114802F0EB
S31508002EC0D3FEA368013BB3F5165F03D3B5210D48BE
S31508002ED002F0CAFE002321462846BDE870401A467D
S31508002EE0FFF762BE8A21074802F0BEFE1CB98C2194
S31508002EF0044802F0B9FE9E21024802F0B5FEBFE77B
S31508002F000000015B4E700008F8B5774B04469842FE
S31508002F100E4606D0754B984203D0E221744802F05B
S31508002F20A3FE1EB9E421724802F09EFE727BB368C6
S31508002F307AB1704A934203D9E6216D4802F094FEAD
S31508002F403369C3B1DB7BB3B1E921694802F08CFE72
S31508002F5011E0694A934203D9EC21654802F084FEE0
S31508002F60336943B11A7F32B1B168644A5B7F9142D3
S31508002F7078D9042B78D86368356923B140F6FF7190
S31508002F80204602F0D8FE2046FFF7C8FC2269737B6C
S31508002F90B17B22F087020B43134343F0800323617E
S31508002FA0002D63D02369297F23F0F80343EAC11370
S31508002FB02978EA7B0B43297943EA4113697A43EA7C
S31508002FC0011343EA82132361E068D5E9053720F047
S31508002FD0F0403B4320F470200343287B697B43EA97
S31508002FE0802343EAC133E360A368F07B23F003033D
S31508002FF0034343F00103A3606B88A06803F4C0434E
S315080030000343A360A368687943EA8023A360AB7986
S31508003010EF79606A1B013F0203F0700307F4E0676B
S3150800302020F4772020F4EE603B430343287A00031C
S3150800303000F4E0400343687F000400F47020034373
S3150800304063626369307B23F00F03034363616B8913
S31508003050A36141BBC2B1244B9C422ED0234B9C4258
S315080030603CD011E0042B86D8F3216EE7A368F27BE7
S3150800307023F00303134343F00103A3606369327B20
S3150800308023F00F03134363612046D6E90112FFF7C5
S31508003090A5FC20463178FFF76BFCA36CDB4313F4E1
S315080030A0405FFAD1F8BD104B9C420CD1AB7B14495A
S315080030B003F00F034B67002AE6D02B7C104A03F077
S315080030C00F031367E0E7094B9C42DDD1AB7B0C4944
S315080030D003F00F03C1F88030002AD5D02B7C084AAC
S315080030E003F00F03D367CFE70000015B00000A5027
S315080030F04E700008002D3101809698003F4B4C0019
S315080031000090035070B51F2904460D46164603D98C
S315080031109121064802F0A8FD2EB104F5805401233A
S31508003120AB40236070BD04F50054F8E788700008CA
S3150800313038B5032804460D4605D8094B33F8103030
S31508003140CB40DB0704D440F28541064802F08CFDEB
S31508003150302301225C43044BAA401A5138BD00BFF4
S3150800316098710008F370000840D0035038B503285A
S3150800317004460D4605D8094B33F81030CB40DB071B
S3150800318004D440F25641064802F06EFD302301226F
S315080031905C43044BAA401A5138BD00BF9871000819
S315080031A0F370000840E003502DE9F84F032807465E
S315080031B00E46144698469DF828A09DF82C9005D8EA
S315080031C0274B33F81030CB40DB0703D4BF21254803
S315080031D002F04AFD86EA0403032B03D9C1212148DC
S315080031E002F042FD072C4FF0030506F0030625D82A
S315080031F04FEA840B05FA0BF529461B4807FA0BF22A
S3150800320002F0C6FD2946194806FA0BF202F0C0FD7F
S31508003210424621461648FFF775FF5246214615488D
S31508003220FFF770FF0123144AA340C2F82034214651
S315080032304A46BDE8F84F1148FFF764BFA4F1080BEA
S315080032404FEA8B0B05FA0BF529460D4807FA0BF2E0
S3150800325002F09EFD29460B4806FA0BF2D6E700BF98
S31508003260987100085F71000800C4035008C4035031
S3150800327010C4035014C4035000E0035024C4035080
S3150800328004C403500CC403502DE9F0410328044636
S315080032900D461746984605D81D4B33F81030CB40D7
S315080032A0DB0704D44FF4B0711A4802F0DDFC37B1DD
S315080032B029462046B8F1000F20D0FFF739FF0F2125
S315080032C0072D04EB440688BFA5F108034FEA061646
S315080032D0114895BFAB009B0004360C3607FA03F27B
S315080032E09940304402F054FD7FB929462046B8F18A
S315080032F0000F06D0BDE8F041FFF71ABFFFF736FF0B
S31508003300DDE7BDE8F041FFF731BFBDE8F08100BF5A
S31508003310987100085F71000830C0035010B5152079
S3150800332000F0C0FB0024FF22064B21465C652020E6
S315080033309A625C60FEF76CFB2146BDE810402120CE
S31508003340FEF766BB0000045038B5072804460D464C
S3150800335003DD7721084802F087FC1F2C03D9912149
S31508003360064802F081FC064A064B002D08BF1346A4
S315080033700122A2401A6038BDA071000888700008B2
S31508003380401004504020045010B5044618B9912145
S315080033901F4802F069FC23781B0613F0604F03D020
S315080033A092211B4802F060FCE3780F2B03D9952184
S315080033B0174802F059FC01212020FEF729FB0121BC
S315080033C02120FEF725FB0122124B15205A60227890
S315080033D012069A606178A27842EA01429A61FF224F
S315080033E09A6200229A631A644FF000425A654FF0B7
S315080033F0FF3203F500531A6500F0A4FB1520E178A7
S3150800340000F0AEFBBDE81040152000F069BB00BF18
S31508003410A071000800000450F8B50126C3B20728B9
S3150800342005460C46174606FA03F603DDDE21344840
S3150800343002F01AFC1CB9DF21314802F015FC23689A
S3150800344023F47C1323F00F031BB1E2212C4802F06E
S315080034500BFCA37A1B0413F47C0F03D0E72128483E
S3150800346002F002FCE37A1B0513F07E6F03D0E92114
S31508003470234802F0F9FB237B5B0513F0FE5F03D0BC
S31508003480EB211F4802F0F0FB1E4B27F003071E65D1
S31508003490AB00226803F1A04303F588235A60302263
S315080034A002FB05F0637B00F1A04000F5802003666F
S315080034B0E37AA27A1B0543EA0243227B43EA425394
S315080034C0C365076703F0E2FB0F4B227A5E6502B11C
S315080034D01E64627A02B19E632279A37943EA0243A3
S315080034E0084A93616179E37943EA014306498B61A6
S315080034F0064B56639E64BDE8F84003F0C2BB00BFA6
S31508003500A071000800200450001004500000045068
S3150800351010B50124C3B2072804FA03F404DD40F207
S315080035207B11074802F0A0FB03F0B0FB054B5A6D70
S3150800353022EA04025A659C62BDE8104003F0A1BB6A
S31508003540A07100080000045010B50124C3B2072872
S3150800355004FA03F404DD40F299110A4802F084FBE8
S3150800356003F094FB084BDA6A224208D15B6B9C4352
S315080035700CBF0124002403F084FB204610BD002460
S31508003580F9E700BFA07100080000045070B50125D6
S31508003590C3B20728044605FA03F504DD4FF4E071C3
S315080035A0094802F061FB03F071FB3022074B5E6BA2
S315080035B002FB04335C6E03F064FB35420ABFC4F3B6
S315080035C00A100020013070BDA071000800000450E8
S315080035D010B5044620B940F23A21104802F044FBDF
S315080035E02378C3B1013BDBB2022B06D80C4A32F86A
S315080035F013306278D340DB0704D440F23D210748F4
S3150800360002F032FB0122637821789A40302359432D
S31508003610044B5A5010BDFF23EBE700BFD8710008D2
S315080036208E72000840E00350034BD3F82424D3F8E5
S3150800363020041040704700BF00C003502DE9F04138
S31508003640037804460D46164613B3013BDBB2022B3C
S3150800365006D82A4A32F813306278D340DB0703D4F7
S315080036605D21274802F000FB264BD3F810331BB127
S315080036706021234802F0F8FA0F2D0BD8DFE805F091
S315080036803631313131313131313131313131313117
S31508003690FF23E1E7B4211A4802F0E6FA4FF00008E2
S315080036A0204606B303F002F80F2167782378072F20
S315080036B003EB430388BF083F4FEA0313124895BF3D
S315080036C0BF00BF0004330C3308FA07F2B9401844A8
S315080036D002F06DFB85B9204656B1BDE8F04102F00F
S315080036E0E5BFA846DCE7FFF773FFDDE7A846DBE79B
S315080036F0BDE8F041FFF76CBFBDE8F0818E720008A7
S315080037004D72000800C0035030C00350054B9A683C
S315080037109107FCD45A689207F9D4DA69002AF6D1D7
S31508003720704700BF00800A5010B5074C6368DB0776
S3150800373004D44FF49F71054802F096FA02F0E2FFAE
S315080037400223236110BD00BF00800A50947200084E
S3150800375008B5FFF7DBFF0122024B03F580514A60EB
S315080037601A6108BD00800A5010B5044B5C68012C2C
S3150800377003D1FFF7D9FF024B5C6010BD00800A50E9
S3150800378000A00A5038B5074DFFF7C0FF6B6804461E
S31508003790012B03D1FFF7E8FFFFF7B8FF2378EB60AB
S315080037A038BD00BF00800A5038B505460C4602F001
S315080037B0B3FFBDB96268237812B1127843EAC2032F
S315080037C0627843EA4203A26812B1127843EA821386
S315080037D0E27843EA8203226912B1127843EA422365
S315080037E0014A936438BD00BF00800A5030B58BB0DB
S315080037F08C4803F056FA20B140F236318A4802F076
S3150800380033FA6C46894D0FCD0FC42B68884A23605E
S31508003810FF238DF80130D2F84C3113F4802340F0A1
S31508003820F580D2F850218DF801309DF801306C46AC
S31508003830FF2B08BF3F2368467E4D8DF80130FEF703
S315080038405BFC3220FEF7BAFC0FCD0FC40FCD0FC4B8
S3150800385095E8030084E80300754BD3F84C2112035E
S3150800386040F1B880A3F5FE431C88B4F5807F28BFD5
S315080038708C248DF81940FEF739FC044484F30804B7
S315080038806D488DF81840FDF76FF96846FEF71CFB82
S315080038903220FEF799FC6948FEF7BCFD6848FEF73A
S315080038A047FE684803F0FDF920B140F2CB115E48A7
S315080038B002F0DAF9644C0020FEF78CFCFEF760FD96
S315080038C0236F002023F0070343F003032367FEF763
S315080038D081FD236F5D4923F4744323675C4BD3F85A
S315080038E0FC2012F0807279D1D4F8803023F00303DB
S315080038F043F00103C4F88030C1F88020524CD4F854
S31508003900203123F0070343F00203C4F82031D4F82A
S31508003910283123F0070343F00203C4F82831D4F80A
S31508003920803123F0030343F00103C4F88031D4F84F
S31508003930403123F0030343F00203C4F84031D4F8BE
S31508003940603123F0030343F00203C4F86031D4F86E
S31508003950403223F0030343F00203C4F84032D4F89C
S31508003960003223F0070343F00203C4F80032D4F808
S31508003970083223F0070343F00203C4F80832D4F8E8
S31508003980703223F0030343F00103C4F87032D4F80D
S31508003990203223F0070343F00103C4F82032FEF770
S315080039A07BFA4FF0E0220020136943F00403136109
S315080039B0D4F8603223F0070343F00103C4F86032F9
S315080039C0D4F8943223F0070343F00103C4F8943281
S315080039D00BB030BDD3F85041E4B24AE7D3F8FC2027
S315080039E022F08072C3F8FC20D4F8802022F003026B
S315080039F042F00102C4F880200022C1F88020D3F8E2
S31508003A00FC2042F08072C3F8FC2077E74FF07E6313
S31508003A1093F89C2093F99C30002BFFF606AF8DF89F
S31508003A20012002E748740008A67300080474000819
S31508003A300080E00F18740008C017530200B4C404CD
S31508003A40C0EA21014C740008008000500090005024
S31508003A5000ED00E007B5094B18689A889B79009035
S31508003A606846ADF804208DF80630FEF7E9FE0C200E
S31508003A70FEF71EFF002003B05DF804FB4074000843
S31508003A8013B50024064A6846536F43F0010353678B
S31508003A9000948DF80440FEF707FE204602B010BDDC
S31508003AA00040005010B54C2804460DD801220A499A
S31508003AB0630904F01F04A240203341F82320BFF312
S31508003AC04F8FBFF36F8F10BD40F22511034802F0E8
S31508003AD0CBF8002CF7DBE9E700E100E07474000896
S31508003AE010B54C28044608D801236109074A04F092
S31508003AF01F04A34042F8213010BD4FF498710448C2
S31508003B0002F0B2F8002CF7DBEEE700BF00E100E0B8
S31508003B107474000810B54B28044604D940F23B11CA
S31508003B20064802F0A1F8064B621153F8220004F089
S31508003B301F04E040C04300F0010010BD7474000883
S31508003B4000E100E0002808DB01224309034900F0F0
S31508003B501F008240603341F82320704700E100E0EF
S31508003B6038B500F110035C2B04460D4604D94FF412
S31508003B70EF710E4802F078F80F2D04D940F2DF11E4
S31508003B800A4802F071F860B20028ACBF00F1604044
S31508003B90074B4FEA0515EDB2ABBF00F5614000F0E3
S31508003BA00F0080F800531D5438BD00BF7474000818
S31508003BB014ED00E010B503F069F80A4B1A786AB9F3
S31508003BC001226FF004041A7003F05BF82046052101
S31508003BD00134FFF7C5FF4C2CF8D110BDBDE81040E5
S31508003BE003F04FB88115002010B5044603F045F8D8
S31508003BF0024B1C6003F03CF8002010BDF8130020AF
S31508003C0010B503F03AF8034B1C6803F031F8204668
S31508003C1010BD00BFF81300202DE9F0438FB01D46F4
S31508003C20136881461F6891F831308846144606AEF7
S31508003C301BB3DFF828C2BCE80F000FC69CE80F00CC
S31508003C4086E80F0018220021684602F028FAA368C1
S31508003C500893237B012B13D0022B14D01BB1D92137
S31508003C60774802F001F80023ADF82630637B032B72
S31508003C701FD8DFE803F00B25221BDFF8E4C1DAE7DB
S31508003C804FF40073F0E74FF44073EDE70023ADF807
S31508003C90283001238DF80630A37BCDF834D0042BC9
S31508003CA011D8DFE803F01415151514004FF4405326
S31508003CB0EDE7EB21624801F0D7FF4FF48053E6E7C2
S31508003CC04FF40053E3E7FE215D4801F0CDFF0023E2
S31508003CD08DF800305B4AD8F8383029461A605A4AB7
S31508003CE048465A6000229A60584ADA60424600F00E
S31508003CF059FC0646002840F09B8023695448C5F8BD
S31508003D00A430237E85F8AB30E37D85F8AA30A37D01
S31508003D1085F8A930637D85F8A830A37E85F8AD308F
S31508003D20637E85F8AC30237F85F8AF30E37E85F86F
S31508003D30AE302368C5F8A03002F0B3FF0123042291
S31508003D40A17D607DFFF7A0FA0123217E0222E07D96
S31508003D50FFF79AFA85F8B060206902F0A2FF98F892
S31508003D603130384606A9002B66D0FFF743F895F898
S31508003D70B03043F0040385F8B0301421227D354B6A
S31508003D8003EB4210C0F8941494F816C0617D2532EE
S31508003D9041EA0C41C0F8AC14207EE17D03EB4213E6
S31508003DA041EA00415960A37B03F0FD03012B0BD1C7
S31508003DB095F8B030022243F0010385F8B030A17EB1
S31508003DC00023607EFFF760FAA37B023B012B0BD82A
S31508003DD095F8B030042243F0020385F8B030217F0D
S31508003DE00023E07EFFF750FA95F8B030DB0717D5C9
S31508003DF0A17E627E237D42EA014241F29C415B013B
S31508003E0003F1A04303F570335A5041F2944202215C
S31508003E109950217FE27E03F5A55342EA01421A60D2
S31508003E200D4A07F5005305213846DA64FEF7A0FD6A
S31508003E3030460FB0BDE8F083FFF70AF89DE700BFEC
S31508003E40D5740008D95D00086B5E0008EF5D0008B0
S31508003E505074000800C00350FF3F0D032475000886
S31508003E604475000840F24221014801F0FDBE00BF3A
S31508003E70D57400083021037D02464B4303F1A04365
S31508003E8003F58023D86E07491B6F884208D113F0C3
S31508003E90020006D0106A136D1B1A58425841704723
S31508003EA0002070478215002037B53023007D0DF1BC
S31508003EB00701434303F1A04303F58023DD6E1C6F1E
S31508003EC002F0B0FB20B140F2F931084801F0CCFE0F
S31508003ED09DF8070040B9064B9D4203D184F00204C1
S31508003EE0C4F3400003B030BD0120FBE76475000849
S31508003EF08215002037B504460DF10701007D02F052
S31508003F0091FB20B140F24441114801F0ADFE9DF805
S31508003F100730A3B1256DD4E9122313449D4201D875
S31508003F20AA4204D940F24F41094801F09DFED4E95E
S31508003F30120303449D4218BF284603B030BD302201
S31508003F40237D534303F1A04303F58023DD6EE2E7A7
S31508003F50647500082DE9F743D0E9043404F17C07B9
S31508003F60D0F80C90013B06461022002138469DB237
S31508003F70D4F8748002F093F8104BC5F30A0543EAA7
S31508003F800513C4E91F39012394F8780084F88C30A6
S31508003F90C4F884803A460A4B009604F16401FDF79A
S31508003FA00FF938B140F28D31064803B0BDE8F04349
S31508003FB001F05ABE03B0BDE8F08300BF0000103020
S31508003FC03D410008647500082DE9F04385B000F10D
S31508003FD03806044610220021304602F060F84FF4F5
S31508003FE04473534D207DC4E90F556387FDF70EF9D9
S31508003FF020B140F2CA514F4801F036FE1022002186
S31508004000304602F04CF84FF4447363873023207D22
S31508004010C4E90F55434303F1A04303F58023DB6E40
S31508004020AB420BD1FDF712F9002876D040F2D351F6
S31508004030404805B0BDE8F04301F016BE0DF10B018E
S3150800404002F0F0FA20B140F2D9513A4801F00CFEDC
S315080040509DF80B30002B63D12046FFF74BFF03A9D1
S315080040600746207D02F000FB20B140F2E1513148BD
S3150800407001F0FAFD039B002B04DC40F2E3512D48C6
S3150800408001F0F2FD039B04F11808013B1022002100
S3150800409040469DB2D4F8109002F001F83022237DF4
S315080040A0C5F30A0553432D0145F04075C4E9065981
S315080040B003F1A043276203F580231A6F94F82410AE
S315080040C0520862F3410184F82410196F94F82420E9
S315080040D028F0030861F3000284F824201B6F626A43
S315080040E09B0863F39F0248F00203626263640094CC
S315080040F032462146104B207DFDF762F820B140F28A
S3150800410004610C4801F0B0FD207DFDF79FF820B151
S315080041104FF4C161074801F0A7FD05B0BDE8F0837B
S3150800412094F844306FF3410384F84430DFE700BF66
S315080041308215002064750008875E000838B5556941
S31508004140144695F88C3023B940F26A310A4801F0D2
S315080041508BFD002305F1900085F88C30FCF726FDD1
S3150800416008B1FFF7F7FE63681BB100212046A26875
S315080041709847002038BD00BF6475000838B5044666
S31508004180007DFDF743F820B140F22D41084801F0C3
S315080041906BFD2046FFF76EFE0546207DFDF756F8B7
S315080041A020B140F23241024801F05EFD284638BD92
S315080041B0647500082DE9F04F8DB099460023044632
S315080041C008910692C9F80030D9F80060069B9D1B35
S315080041D000F0C580089B9E1900F0C1802046FFF7B5
S315080041E0CDFF8046002840F0BA802046FFF782FEC1
S315080041F0226D904240F2BC80801A854228BF05464F
S3150800420094F896A0BAF1000F00F0F28002F03EFD95
S31508004210236D079020460993FFF746FE2F46099B14
S31508004220834658198342D4F8981040F0BC80D4E9E4
S31508004230122313448B4208BFC4F89820D4F8981068
S315080042408A4201D88B4204D840F242518A4801F08A
S315080042500BFD079802F015FDDA46207DFCF7D6FF20
S3150800426020B140F28241844801F0FEFC207D0DF128
S315080042702F0102F0D7F920B140F286417E4801F0BD
S31508004280F3FC2046FFF736FE236D834698429DF8D9
S315080042902F3040F2BC8023B140F28E41764801F0BF
S315080042A0E3FCA26C236DAEB2934240F0A88009935A
S315080042B004F128082369102200214046079301F0DB
S315080042C0EEFE3021079B013EE362099BC6F30A0610
S315080042D02363237D36014B4328F0030803F1A043EB
S315080042E046F0407648F0020203F58023A6621A6774
S315080042F0236DD4E912122B440A44934208BF0B4695
S315080043009342236504D340F2DE415B4801F0ACFCDE
S31508004310236D9B4505D10123204684F85430FFF7C9
S3150800432053FE207DFCF792FF20B140F2F741524838
S3150800433001F09AFC94F896303BB1BAF1000F04D01C
S31508004340236E112120465B689847D9F8003037B1AB
S31508004350069A3B449342C9F80030FFF435AFD9F8C2
S315080043600030002B14BF00201B200DB0BDE8F08FD5
S31508004370D4E912310B449A4204D340F26A413E48CA
S3150800438001F072FCD4E912321344226D9B1A9D4245
S3150800439028BF1D46002D7FF433AF40F2165136482C
S315080043A001F062FC2CE701335A1E914210D1C4F881
S315080043B0983013F8012C112A01D0132A14D1013F81
S315080043C0A2F111014A424A41D04684F89C2029E7C5
S315080043D013F8012C02F0FD01112906D1013FB8F1AD
S315080043E0000F3FF41FAFEBE7D04606F8012B19E79D
S315080043F02A463046216D01F05DFE2F462DE7238DB6
S31508004400C3F30A12164466F30E13238570E7207D5C
S3150800441093B93023584300F1A04000F58020426E3E
S31508004420436EC2F30A1223F4FF432A4423F07003AF
S3150800443043EA021343665BE7104B04940393002395
S31508004440CDE90153012300935A462369216801F0F7
S3150800445034FC20B140F2CB41074801F005FC30227C
S31508004460237D534303F1A04303F580235A6E22F4B8
S3150800447080125A663CE700BF64750008875E00082C
S315080044802DE9F84F90F8943004460D46002B40F07D
S31508004490858090F89580DFF808918E18B54223D06C
S315080044A094F896306BB12046FFF768FEF8B1D4F859
S315080044B09820236D9A4204D040F2CD21484601F057
S315080044C0D3FB94F89C30002BE8D0236E2F462A782D
S315080044D05B68B8F1000F59D1236E20465B683978BE
S315080044E0013598470028D9D00020BDE8F88F02F09A
S315080044F0CDFB0746207DFCF789FE20B140F2D3218B
S31508004500274801F0B1FB2046FFF7F4FCA26C00F146
S31508004510FF3A924538BFE36C207D3CBF03F1FF3379
S3150800452002EB030A94F854B0FCF790FE20B140F26F
S31508004530DF211B4801F098FBD4F89810BBF1000F57
S3150800454022D0236D8B4204D04FF43971144801F000
S315080045508BFB384602F095FBB3E7A26C9A4202D968
S31508004560E36C013B134499420BD013F80129112A35
S3150800457001D0132AF1D1A2F111035A425A4184F803
S315080045809C20C4F898A0E4E75346ECE70A2AA3D18E
S315080045900D212046984700289ED0A5E70E20A4E7BF
S315080045A064750008F0B589B00C4615460646A02283
S315080045B00021204601F073FD2746AC46BCE80F00F3
S315080045C00FC7DCF8003005F1140C3B6004F16407F2
S315080045D0BCE80F000FC7DCF80030EA6A3B60AB6A3C
S315080045E0C4E9132395F83020A36484F8952095F838
S315080045F03320C4F89830012384F8962084F89C3038
S3150800460084F85430AB6B2366324B34607360324B9C
S31508004610B360324BF360324B7361324BB361324B4A
S315080046203361FCF799FD10B1304B98420FD1002148
S3150800463007A8FCF719FD014648B9079B07A8237583
S31508004640FCF712FD0346207D23B1FCF75FFD102021
S3150800465009B0F0BD079B84F87830FCF7D7FD002831
S31508004660F5D1234B0494CDE90203E36C01930123AE
S3150800467000932369A26C2168207D01F01EFB0028A7
S31508004680E5D13022237D4FF48011534342F2640270
S3150800469003F1A04303F580239950AB6B93F91000FF
S315080046A0FFF750FAAB6B93F91000FFF719FA04F10C
S315080046B0900001F0DAFA3046FFF796FA2046FFF73F
S315080046C083FC207DFCF7C2FD003818BF01200001DD
S315080046D0BEE700BF81440008F75E0008B541000840
S315080046E07B5E0008815E0008F5460008038000F03E
S315080046F0875E000870B50568044695F89460002E34
S315080047003BD101F01BFCFFF77BFA844202D130460D
S31508004710FFF76AFA2B6E93F91000FFF713FA2B6E60
S3150800472093F91000FFF7BEF9287D01F05BFF20B171
S3150800473040F29721144801F097FA287DFCF7E6FC29
S3150800474020B140F29B21104801F08EFAFCF7BCFC20
S3150800475038B10E4B984204D040F29F210A4801F026
S3150800476083FA0023C4E90033C4E90533E3602B6EFA
S315080047702846BDE87040DB68184740F266210248C3
S3150800478001F072FA0F2070BD64750008058000F00C
S315080047900346054A0549106803448B428CBF4FF00F
S315080047A0FF301360704700BFC015002000000420CA
S315080047B070B502F06BFA144E05463478FCB9134B03
S315080047C01C60134B1C60134B1C6000F047F801205B
S315080047D002F0FAFA02F0E8F90F4B0246186020B91F
S315080047E0284602F04EFA232070BD234640F2E731F0
S315080047F00A4800F051FA0A4B18600123337028461C
S3150800480002F03FFA0020EFE7851500200414002087
S31508004810001400200C1400200814002018FCFFFFC8
S31508004820FC13002000B58DB001238DF80F3002F07F
S31508004830FDF800230146CDE90033074A0DF10F03C1
S3150800484004A802F099FA18B99DF80F30002BFBD18D
S315080048500DB05DF804FB00BF736D000810B586B097
S3150800486000241422214601A88DF8004001F017FC07
S31508004870012313488DF8043002F013FABFF34F8F63
S315080048806846FEF77FFF204601A98DF80440FEF72B
S315080048908BFF20460F2101F05FFF0F21204601F014
S315080048A069FFFEF755FF01F02DFF064B43209C617B
S315080048B0FFF748F94320FFF713F906B010BD00BF0C
S315080048C04874000800800A5010B5044601F018FE26
S315080048D04FF47A729042B0FBF2F105D23621BDE868
S315080048E010400C4801F0C0B90B4BB3FBF1F30B4970
S315080048F0884201D93C21F2E702FB04F0B0FBF3F051
S31508004900022806D9BDE810400323B0FBF3F0FBF7F5
S315080049102FBC10BDFB75000840420F00E7CD9A3B3F
S3150800492081F0004102E000BF83F0004330B54FEA52
S3150800493041044FEA430594EA050F08BF90EA020FBF
S315080049401FBF54EA000C55EA020C7FEA645C7FEA52
S31508004950655C00F0E2804FEA5454D4EB5555B8BF75
S315080049606D420CDD2C4480EA020281EA030382EAE6
S31508004970000083EA010180EA020281EA0303362D78
S3150800498088BF30BD11F0004F4FEA01314FF4801C4B
S315080049904CEA113102D0404261EB410113F0004F5D
S315080049A04FEA03334CEA133302D0524263EB430314
S315080049B094EA050F00F0A780A4F10104D5F1200EB2
S315080049C00DDB02FA0EFC22FA05F2801841F100010D
S315080049D003FA0EF2801843FA05F359410EE0A5F1E1
S315080049E020050EF1200E012A03FA0EFC28BF4CF012
S315080049F0020C43FA05F3C01851EBE37101F00045C8
S31508004A0007D54FF0000EDCF1000C7EEB00006EEBD4
S31508004A100101B1F5801F1BD3B1F5001F0CD349085E
S31508004A205FEA30004FEA3C0C04F101044FEA4452B5
S31508004A3012F5800F80F09A80BCF1004F08BF5FEA3C
S31508004A40500C50F1000041EB045141EA050130BD1C
S31508004A505FEA4C0C404141EB0101013C28BFB1F52E
S31508004A60801FE9D291F0000F04BF01460020B1FA79
S31508004A7081F308BF2033A3F10B03B3F120020CDA4C
S31508004A800C3208DD02F1140CC2F10C0201FA0CF02A
S31508004A9021FA02F10CE002F11402D8BFC2F1200C8F
S31508004AA001FA02F120FA0CFCDCBF41EA0C01904045
S31508004AB0E41AA2BF01EB0451294330BD6FEA04048E
S31508004AC01F3C1CDA0C340EDC04F11404C4F1200279
S31508004AD020FA04F001FA02F340EA030021FA04F38B
S31508004AE045EA030130BDC4F10C04C4F1200220FAE2
S31508004AF002F001FA04F340EA0300294630BD21FA20
S31508004B0004F0294630BD94F0000F83F4801306BFE5
S31508004B1081F480110134013D4EE77FEA645C18BFD9
S31508004B207FEA655C29D094EA050F08BF90EA020F70
S31508004B3005D054EA000C04BF1946104630BD91EA68
S31508004B40030F1EBF0021002030BD5FEA545C05D16B
S31508004B504000494128BF41F0004130BD14F58004AA
S31508004B603CBF01F5801130BD01F0004545F0FE411E
S31508004B7041F470014FF0000030BD7FEA645C1ABF53
S31508004B80194610467FEA655C1CBF0B46024650EA8A
S31508004B90013406BF52EA033591EA030F41F40021B6
S31508004BA030BD00BF90F0000F04BF0021704730B53C
S31508004BB04FF4806404F132044FF000054FF0000111
S31508004BC050E700BF90F0000F04BF0021704730B5D2
S31508004BD04FF4806404F1320410F0004548BF4042A7
S31508004BE04FF000013EE700BF42004FEAE2014FEAFC
S31508004BF031014FEA02701FBF12F07F4393F07F4FD7
S31508004C0081F06051704732F07F4208BF704793F0D9
S31508004C107F4F04BF41F40021704730B54FF46074EC
S31508004C2001F0004521F000411CE700BF50EA0102EF
S31508004C3008BF704730B54FF000050AE050EA010298
S31508004C4008BF704730B511F0004502D5404261EB08
S31508004C5041014FF4806404F132045FEA915C3FF449
S31508004C60D8AE4FF003025FEADC0C18BF03325FEAE6
S31508004C70DC0C18BF033202EBDC02C2F1200300FA97
S31508004C8003FC20FA02F001FA03FE40EA0E0021FABC
S31508004C9002F11444BDE600BF53B94AB9002908BF5A
S31508004CA000281CBF4FF0FF314FF0FF3000F082B9EB
S31508004CB0ADF1080C6DE904CE00F006F8DDF804E065
S31508004CC0DDE9022304B070472DE9F04F099D0C4633
S31508004CD0002B4DD18A420F4684469646B2FA82F395
S31508004CE060D94BB102FA03FEC3F120029F4000FAD5
S31508004CF003FC20FA02F217434FEA1E461FFA8EF407
S31508004D004FEA1C42B7FBF6F106FB117701FB04F0EC
S31508004D1042EA0742904208D91EEB020201F1FF3728
S31508004D2002D2904200F231813946121A1FFA8CFCDF
S31508004D30B2FBF6F006FB102200FB04F44CEA024C28
S31508004D40644508D91EEB0C0C00F1FF3202D264450B
S31508004D5000F21E81104640EA0140ACEB040C00212B
S31508004D6025B12CFA03F30022C5E90032BDE8F08F1D
S31508004D708B4205D90DB1C5E9000100210846F5E7C2
S31508004D80B3FA83F100294DD1A342C0F0F3809042D3
S31508004D9080F0F080064623460846002DE6D0C5E991
S31508004DA00063E3E7002B40F0A3808A1A4FEA1E4708
S31508004DB01FFA8EF60121B2FBF7F407FB14204FEA1F
S31508004DC01C4242EA004206FB04F090420FD91EEB51
S31508004DD0020204F1FF382CBF4FF001094FF0000919
S31508004DE0904203D9B9F1000F00F0CC804446121A5C
S31508004DF01FFA8CFCB2FBF7F007FB102200FB06F645
S31508004E004CEA024C664508D91EEB0C0C00F1FF3241
S31508004E1002D2664500F2B3801046ACEB060C40EAB7
S31508004E2004409DE7C1F120068B4004FA01FE22FAF0
S31508004E3006F720FA06FCF4408A401F434EEA0C03A4
S31508004E4000FA01FE4FEA17484FEA13491FFA87FC92
S31508004E50B4FBF8F008FB104449EA044400FB0CF9DB
S31508004E60A1450ED93C1900F1FF3A2CBF4FF0010BB2
S31508004E704FF0000BA14503D9BBF1000F00F08B8062
S31508004E805046A4EB09041FFA83F9B4FBF8F308FBB0
S31508004E90134403FB0CFC49EA0444A44506D93C190F
S31508004EA003F1FF3801D2A4457BD8434643EA0040C4
S31508004EB0A4EB0C04A0FB02984445CC46434602D317
S31508004EC006D1CE4504D20138B9EB020C68EB0703CC
S31508004ED0002D6CD0BEEB0C0264EB030422FA01F33E
S31508004EE004FA06F6CC4000211E43C5E900643DE7F6
S31508004EF002FA03FEC3F1200104FA03F200FA03FCE6
S31508004F00CC404FEA1E4720FA01F11FFA8EF6B4FB91
S31508004F10F7F00A4307FB1044110C41EA044100FB71
S31508004F2006F48C420ED91EEB010100F1FF382CBFA6
S31508004F304FF001094FF000098C4202D9B9F1000F70
S31508004F402CD04046091B92B2B1FBF7F407FB1411AB
S31508004F5042EA014204FB06F1914207D91EEB02021E
S31508004F6004F1FF3801D291421ED84446521A44EA47
S31508004F70004120E7861A64EB030301200DE7F44499
S31508004F8002384AE7023C724431E702397244CCE6F9
S31508004F90F4440238DFE602383C4472E702387144CA
S31508004FA0D0E7023B3C4481E7023C7244DEE72946EF
S31508004FB0DCE600BF704700BF08B5064B044613B1D0
S31508004FC00021AFF30080044B1B6803B198472046C5
S31508004FD000F051FE0000000048150020002310B51F
S31508004FE004468360818119464366C281082283612B
S31508004FF0C0E90033C0E904335C3001F050F80D4BCA
S31508005000246263620C4BA3620C4BE3620C4B236372
S315080050100C4B9C4206D003F16802944202D0D0336E
S315080050209C4205D104F15800BDE8104001F03FB894
S3150800503010BD00BF196000083B60000873600008D7
S315080050409760000810140020024A0349034800F03C
S31508005050C5BF00BFC41500200B630008D415002087
S3150800506041680C4B994210B5044601D001F04DF940
S31508005070A168094B994202D0204601F046F9E16839
S31508005080064B994204D02046BDE8104001F03DB9D0
S3150800509010BD00BF1014002078140020E014002072
S315080050A010B50B4B04210B4C0B4A20461A60002204
S315080050B0FFF794FF04F1680001220921FFF78EFF2C
S315080050C004F1D00002221221BDE81040FFF786BF86
S315080050D0481500201014002049500008014800F027
S315080050E0E7BF00BF87150020014800F0E2BF00BFF8
S315080050F08715002010B50446FFF7F0FF236A1BB199
S31508005100BDE81040FFF7F0BF044B2362044B1B6851
S31508005110002BF5D1FFF7C4FFF2E700BF6150000886
S31508005120481500200FB407B5064904AB086853F8BC
S31508005130042B8168019300F061F903B05DF804EB74
S3150800514004B07047D015002038B50023054D044635
S3150800515008462B6000F08CFD431C02D12B6803B176
S31508005160236038BD4C15002038B50446064D084660
S31508005170114600222A601A4600F082FD431C02D11D
S315080051802B6803B1236038BD4C15002038B504469A
S31508005190064D0846114600222A601A4600F072FD9E
S315080051A0431C02D12B6803B1236038BD4C1500207F
S315080051B038B50446064D0846114600222A601A46A6
S315080051C000F062FD431C02D12B6803B1236038BD91
S315080051D04C15002070B50D4D00260D4C641BA4100F
S315080051E0A64209D10B4D00260B4C01F019FE641B93
S315080051F0A410A64205D170BD55F8043B0136984760
S31508005200EEE755F8043B01369847F2E728160020E2
S3150800521028160020281600202C16002038B505462A
S31508005220002941D051F8043C0C1F002BB8BFE418E4
S3150800523000F0D8F81D4A136833B96360146028462D
S31508005240BDE8384000F0D4B8A34208D92068211830
S315080052508B4201BF19685B6809182160EDE71A4699
S315080052605B680BB1A342FAD911685018A0420BD15A
S3150800527020680144501811608342E0D118685B68C1
S31508005280084453601060DAE702D90C232B60D6E78E
S31508005290206821188B4202BF19685B680918636089
S315080052A008BF21605460CAE738BD00BF5415002006
S315080052B070B50F4E0C460546316811B900F038FB3B
S315080052C030602146284600F033FB431C03D14FF0DB
S315080052D0FF34204670BDC41C24F00304A042F8D055
S315080052E0211A284600F024FB0130F2D1EFE700BF6F
S315080052F0501500202DE9F041CD1C064625F0030582
S3150800530008350C2D38BF0C25002D01DBA94204D920
S315080053100C2333600020BDE8F081314F00F062F8BD
S315080053203B681C4644BB29463046FFF7C1FF431C71
S31508005330044650D13C682146002941D1002C44D06E
S315080053402368304604EB030800F0F2FA80453CD1A6
S31508005350216830466D1A2946FFF7AAFF013034D076
S3150800536023682B4423603B68002B36D05A68A24238
S3150800537029D100225A600EE02268521B1DD40B2A3E
S3150800538016D96119A342256018BF5960636808BF1A
S31508005390396062514B60304600F02AF804F10B0080
S315080053A0231D20F00700C21AB5D01B1AA350B2E776
S315080053B0A3426268DED13A60EDE723466468B1E746
S315080053C00C464968B8E71346CEE70C2330463360E7
S315080053D000F00EF89EE70560DDE75B60FFDE00BFC4
S315080053E054150020014800F063BE00BF8615002052
S315080053F0014800F05EBE00BF861500202DE9F04F7B
S315080054000D469DB014469846064618B1036A0BB970
S31508005410FFF770FE6B6ED90705D4AB899A0502D4DF
S31508005420A86D00F045FEAB891B0701D52B699BB912
S315080054302946304600F026FA70B16B6EDC0704D5B3
S315080054404FF0FF301DB0BDE8F08FAB899805F7D453
S31508005450A86D00F02EFEF3E70023CDF80C804FF080
S315080054600109DFF8B481099320238DF82930302308
S315080054708DF82A3023469A4613F8012B0AB1252AB5
S31508005480F9D1BAEB040B0BD05B46224629463046C7
S3150800549000F034FE013000F0A780099A5A440992B8
S315080054A09AF80030002B00F09F8000234FF0FF325F
S315080054B00AF1010A049307938DF853301A93CDE93C
S315080054C0052354460522544814F8011B00F083FFAF
S315080054D0049AD8B9D10644BF20238DF85330130750
S315080054E044BF2B238DF853309AF800302A2B15D059
S315080054F0079A544600204FF00A0C214611F8013B42
